:020000040800F2
:1000000000000120D52F0008252F0008272F000809
:10001000292F00082B2F00082D2F000800000000BA
:100020000000000000000000000000002F2F00086A
:10003000312F000800000000332F0008352F000882
:10004000253000082530000825300008253000083C
:10005000253000082530000825300008253000082C
:10006000253000082530000825300008253000081C
:10007000253000082530000825300008253000080C
:1000800025300008253000082530000825300008FC
:1000900025300008253000082530000825300008EC
:1000A000392F0008253000082530000825300008C9
:1000B000552F0008612F0008253000082530000862
:1000C00025300008253000082530000825300008BC
:1000D00025300008253000082530000825300008AC
:1000E000253000082530000825300008253000089C
:1000F000253000082530000825300008253000088C
:100100002530000800000000000000002530000835
:10011000253000082530000825300008253000086B
:10012000253000082530000825300008253000085B
:100130002530000825300008000000000000000005
:100140002530000825300008253000080000000098
:10015000000000000000000000000000000000009F
:10016000253000082530000825300008253000081B
:10017000253000082530000825300008253000080B
:1001800025300008253000080000000000000000B5
:04019000253000080E
:1001940010B5054C237833B9044B13B10448AFF3BD
:1001A40000800123237010BD100000200000000017
:1001B4008030000808B5034B1BB103490348AFF373
:1001C400008008BD000000001400002080300008FA
:1001D40081F0004102E000BF83F0004330B54FEAF4
:1001E40041044FEA430594EA050F08BF90EA020F61
:1001F4001FBF54EA000C55EA020C7FEA645C7FEAF4
:10020400655C00F0E2804FEA5454D4EB5555B8BF16
:100214006D420CDD2C4480EA020281EA030382EA87
:10022400000083EA010180EA020281EA0303362D19
:1002340088BF30BD11F0004F4FEA01314FF4801CEC
:100244004CEA113102D0404261EB410113F0004FFE
:100254004FEA03334CEA133302D0524263EB4303B5
:1002640094EA050F00F0A780A4F10104D5F1200E53
:100274000DDB02FA0EFC22FA05F2801841F10001AE
:1002840003FA0EF2801843FA05F359410EE0A5F182
:1002940020050EF1200E012A03FA0EFC28BF4CF0B3
:1002A400020C43FA05F3C01851EBE37101F0004569
:1002B40007D54FF0000EDCF1000C7EEB00006EEB76
:1002C4000101B1F5801F1BD3B1F5001F0CD3490800
:1002D4005FEA30004FEA3C0C04F101044FEA445257
:1002E40012F5800F80F09A80BCF1004F08BF5FEADE
:1002F400500C50F1000041EB045141EA050130BDBE
:100304005FEA4C0C404141EB010111F4801FA4F160
:100314000104E9D191F0000F04BF01460020B1FAB5
:1003240081F308BF2033A3F10B03B3F120020CDAED
:100334000C3208DD02F1140CC2F10C0201FA0CF0CB
:1003440021FA02F10CE002F11402D8BFC2F1200C30
:1003540001FA02F120FA0CFCDCBF41EA0C019040E6
:10036400E41AA2BF01EB0451294330BD6FEA04042F
:100374001F3C1CDA0C340EDC04F11404C4F120021A
:1003840020FA04F001FA02F340EA030021FA04F32C
:1003940045EA030130BDC4F10C04C4F1200220FA83
:1003A40002F001FA04F340EA0300294630BD21FAC1
:1003B40004F0294630BD94F0000F83F4801306BF87
:1003C40081F480110134013D4EE77FEA645C18BF7B
:1003D4007FEA655C29D094EA050F08BF90EA020F12
:1003E40005D054EA000C04BF1946104630BD91EA0A
:1003F400030F1EBF0021002030BD5FEA545C05D10D
:100404004000494128BF41F0004130BD14F580044B
:100414003CBF01F5801130BD01F0004545F0FE41BF
:1004240041F470014FF0000030BD7FEA645C1ABFF4
:10043400194610467FEA655C1CBF0B46024650EA2B
:10044400013406BF52EA033591EA030F41F4002157
:1004540030BD00BF90F0000F04BF0021704730B5DD
:100464004FF4806404F132044FF000054FF00001B2
:1004740050E700BF90F0000F04BF0021704730B573
:100484004FF4806404F1320410F0004548BF404248
:100494004FF000013EE700BF42004FEAE2014FEA9D
:1004A40031014FEA02701FBF12F07F4393F07F4F78
:1004B40081F06051704792F0000F14BF93F07F4FAA
:1004C400704730B54FF4607401F0004521F00041ED
:1004D40020E700BF50EA010208BF704730B54FF073
:1004E40000050AE050EA010208BF704730B511F078
:1004F400004502D5404261EB41014FF4806404F1B0
:1005040032045FEA915C3FF4DCAE4FF003025FEA31
:10051400DC0C18BF03325FEADC0C18BF033202EBB9
:10052400DC02C2F1200300FA03FC20FA02F001FA13
:1005340003FE40EA0E0021FA02F11444C1E600BFB2
:1005440070B54FF0FF0C4CF4E06C1CEA11541DBF65
:100554001CEA135594EA0C0F95EA0C0F00F0DEF830
:100564002C4481EA030621EA4C5123EA4C5350EA15
:10057400013518BF52EA033541F4801143F4801366
:1005840038D0A0FB02CE4FF00005E1FB02E506F0F7
:100594000042E0FB03E54FF00006E1FB03569CF04C
:1005A400000F18BF4EF0010EA4F1FF04B6F5007F52
:1005B40064F5407404D25FEA4E0E6D4146EB0606C4
:1005C40042EAC62141EA55514FEAC52040EA5E504D
:1005D4004FEACE2EB4F1FD0C88BFBCF5E06F1ED8F7
:1005E400BEF1004F08BF5FEA500E50F1000041EB2E
:1005F400045170BD06F0004646EA010140EA0200DB
:1006040081EA0301B4EB5C04C2BFD4EB0C0541EAFC
:10061400045170BD41F480114FF0000E013C00F311
:10062400AB8014F1360FDEBF002001F0004170BD35
:10063400C4F10004203C35DA0C341BDC04F114044E
:10064400C4F1200500FA05F320FA04F001FA05F2DA
:1006540040EA020001F0004221F0004110EBD370A7
:1006640021FA04F642EB06015EEA430E08BF20EAD3
:10067400D37070BDC4F10C04C4F1200500FA04F376
:1006840020FA05F001FA04F240EA020001F0004108
:1006940010EBD37041F100015EEA430E08BF20EA7B
:1006A400D37070BDC4F1200500FA05F24EEA020EC3
:1006B40020FA04F301FA05F243EA020321FA04F0F2
:1006C40001F0004121FA04F220EA020000EBD370A9
:1006D4005EEA430E08BF20EAD37070BD94F0000FA9
:1006E4000FD101F00046400041EB010111F4801FDD
:1006F40008BF013CF7D041EA060195F0000F18BF8E
:10070400704703F00046520043EB030313F4801FC9
:1007140008BF013DF7D043EA0603704794EA0C0F83
:100724000CEA135518BF95EA0C0F0CD050EA410699
:1007340018BF52EA4306D1D181EA030101F0004116
:100744004FF0000070BD50EA410606BF104619463E
:1007540052EA430619D094EA0C0F02D150EA01364A
:1007640013D195EA0C0F05D152EA03361CBF10468B
:1007740019460AD181EA030101F0004141F0FE412A
:1007840041F470014FF0000070BD41F0FE4141F4AE
:10079400780170BD70B54FF0FF0C4CF4E06C1CEAAE
:1007A40011541DBF1CEA135594EA0C0F95EA0C0F63
:1007B40000F0A7F8A4EB050481EA030E52EA03351E
:1007C4004FEA013100F088804FEA03334FF080553F
:1007D40045EA131343EA12634FEA022245EA11156C
:1007E40045EA10654FEA00260EF000419D4208BF1D
:1007F400964244F1FD0404F5407402D25B084FEACA
:100804003202B61A65EB03055B084FEA32024FF475
:1008140080104FF4002CB6EB020E75EB030E22BFD2
:10082400B61A754640EA0C005B084FEA3202B6EB92
:10083400020E75EB030E22BFB61A754640EA5C0041
:100844005B084FEA3202B6EB020E75EB030E22BFD1
:10085400B61A754640EA9C005B084FEA3202B6EBD2
:10086400020E75EB030E22BFB61A754640EADC0091
:1008740055EA060E18D04FEA051545EA16754FEAF3
:1008840006164FEAC30343EA52734FEAC2025FEA11
:100894001C1CC0D111F4801F0BD141EA00014FF0A0
:1008A40000004FF0004CB6E711F4801F04BF014371
:1008B4000020B4F1FD0C88BFBCF5E06F3FF6AFAE8D
:1008C400B5EB030C04BFB6EB020C5FEA500C50F11D
:1008D400000041EB045170BD0EF0004E4EEA1131A0
:1008E40014EB5C04C2BFD4EB0C0541EA045170BDA7
:1008F40041F480114FF0000E013C90E645EA060EEB
:100904008DE60CEA135594EA0C0F08BF95EA0C0F18
:100914003FF43BAF94EA0C0F0AD150EA01347FF460
:1009240034AF95EA0C0F7FF425AF104619462CE737
:1009340095EA0C0F06D152EA03353FF4FDAE10469A
:10094400194622E750EA410618BF52EA43067FF4EB
:10095400C5AE50EA41047FF40DAF52EA43057FF47B
:10096400EBAE12E74FF0FF3C06E000BF4FF0010C86
:1009740002E000BF4FF0010C4DF804CD4FEA410CEA
:100984007FEA6C5C4FEA430C18BF7FEA6C5C1BD0B7
:1009940001B050EA410C0CBF52EA430C91EA030F38
:1009A40002BF90EA020F0020704710F1000F91EA95
:1009B400030F58BF994208BF90422CBFD8176FEA63
:1009C400E37040F0010070474FEA410C7FEA6C5C31
:1009D40002D150EA013C07D14FEA430C7FEA6C5C38
:1009E400D6D152EA033CD3D05DF8040B704700BF64
:1009F4008446104662468C461946634600E000BFB2
:100A040001B5FFF7B7FF002848BF10F1000F01BD83
:100A14004DF808EDFFF7F4FF0CBF012000205DF84E
:100A240008FB00BF4DF808EDFFF7EAFF34BF0120D3
:100A340000205DF808FB00BF4DF808EDFFF7E0FF6C
:100A440094BF012000205DF808FB00BF4DF808EDBD
:100A5400FFF7CEFF94BF012000205DF808FB00BF24
:100A64004DF808EDFFF7C4FF34BF012000205DF806
:100A740008FB00BF4FEA410212F5001215D211D54E
:100A84006FF47873B3EB625212D94FEAC12343F087
:100A9400004343EA505311F0004F23FA02F018BF09
:100AA400404270474FF00000704750EA013005D1D2
:100AB40011F0004008BF6FF0004070474FF0000095
:100AC400704700BF38B50E4A0E4B054618784FF4F0
:100AD4007A73B3FBF0F31068B0FBF3F000F08CF81A
:100AE400044658B90F2D09D8024629464FF0FF3065
:100AF40000F042F8044B20461D6038BD012038BD8B
:100B0400080000200000002004000020074A08B567
:100B1400136843F010031360032000F01BF8002057
:100B2400FFF7D0FF02F08EF8002008BD002002403D
:100B3400034A044B11681B780B441360704700BFD1
:100B44002C00002000000020014B1868704700BFF3
:100B54002C000020074AD36823F4E0631B041B0C19
:100B640043F0BF63000243F4003300F4E060034346
:100B7400D360704700ED00E0174B30B5DC68C4F378
:100B84000224C4F10703251D042B28BF0423062DCA
:100B94004FF0010505FA03F303F1FF338CBF033C67
:100BA40000241940A14005FA04F4013C2240002825
:100BB40042EA01024FEA0212AFBF00F1604000F0C6
:100BC4000F00064BD2B2A5BF00F56140D2B21A5451
:100BD40080F8002330BD00BF00ED00E014ED00E01C
:100BE4004209012300F01F0003FA00F0014B43F80F
:100BF4002200704700E100E00138B0F1807F0AD2A2
:100C0400064B074A5860F02182F82310002007227F
:100C140098601A6070470120704700BF10E000E040
:100C240000ED00E02DE9F74FD1F80080DFF8909156
:100C3400614A002338FA03F402D103B0BDE8F08F0F
:100C44004FF0010E0EFA03FE18EA0E0600F0A6801D
:100C54004C6824F01007022F16D14FEAD30A00EB98
:100C64008A0A03F0070BDAF820504FEA8B0B4FF097
:100C74000F0C0CFA0BFC25EA0C0C0D6905FA0BF5AC
:100C840045EA0C05CAF820504FEA430A0325D0F878
:100C940000B005FA0AF5ED4304F0030C0BEA050B6A
:100CA4000CFA0AFC013F4CEA0B0C012FC0F800C0FF
:100CB40011D8876807EA050BCF6807FA0AFC4CEAE3
:100CC4000B078760476827EA0E0EC4F300179F409E
:100CD40047EA0E074760C7683D408F6807FA0AF77E
:100CE4003D43C560E50059D5D9F8185045F00105D4
:100CF400C9F81850D9F8185023F0030707F18047B2
:100D040005F0010507F58037019503F0030C019DFB
:100D1400BD684FEA8C0C4FF00F0E0EFA0CFEB0F1CA
:100D2400904F25EA0E0E3BD0244DA8423AD005F54B
:100D34008065A84238D005F58065A84236D005F50F
:100D44008065A84234D005F58065A84232D005F507
:100D54008065A84214BF0725062505FA0CF545EA67
:100D64000E05BD601568F74314F4803F0CBF3D4089
:100D740035431560556814F4003F0CBF3D403543BE
:100D84005560956814F4801F0CBF3D403543956051
:100D9400D568A40254BF3D403543D560013349E7CB
:100DA4000025DAE70125D8E70225D6E70325D4E7AD
:100DB4000425D2E70525D0E70004014000040048DB
:100DC400001002400369194214BF0120002070473B
:100DD4000AB1816170478162704700002DE9F347D1
:100DE400054618B9012002B0BDE8F0870368DF07A3
:100DF40011D42B689E0700F188802B681C0700F132
:100E0400FC802B68580700F14581AA69002A40F04C
:100E1400DC810020E7E7BD4C636803F00C03042B7E
:100E24000AD0636803F00C03082B19D1636803F438
:100E3400C033B3F5803F13D14FF4003393FAA3F2D8
:100E4400216893FAA3F3B3FA83F303F01F03012297
:100E540002FA03F30B42CCD06B68002BC9D1C1E773
:100E64006B68B3F5803F1ED1236843F4803323605D
:100E7400FFF76AFE4FF400368046012796FAA6F380
:100E8400226896FAA6F3B3FA83F303F01F0307FA72
:100E940003F31342ADD1FFF757FEA0EB080064281B
:100EA400ECD903209FE70BBB236823F48033236032
:100EB400236823F480232360FFF746FE4FF40036B3
:100EC4008046012796FAA6F3226896FAA6F3B3FAA7
:100ED40083F303F01F0307FA03F3134289D0FFF7E8
:100EE40033FEA0EB08006428ECD9DAE7B3F5A02FB1
:100EF400236803D143F480232360B5E723F48033CC
:100F04002360236823F48023B1E7804C636813F0E3
:100F14000C0F0AD0636803F00C03082B25D1636817
:100F240003F4C033B3F5004F1FD1022393FAA3F2A5
:100F3400216893FAA3F3B3FA83F303F01F030122A6
:100F440002FA03F30B4203D0EB6893427FF44AAFF7
:100F54002168F82393FAA3F3B3FA83F22B6993403D
:100F640021F0F8021343236047E7EA6801260AB335
:100F740096FAA6F3B3FA83F303F1845303F58413C7
:100F84009B0002271E60FFF7DFFD804697FAA7F358
:100F9400226897FAA7F3B3FA83F303F01F0306FA60
:100FA40003F31342D4D1FFF7CFFDA0EB08000228CE
:100FB400ECD976E796FAA6F3B3FA83F303F18453F4
:100FC40003F584139B0002271A60FFF7BDFD8046DA
:100FD40097FAA7F3226897FAA7F3B3FA83F303F017
:100FE4001F0306FA03F313423FF407AFFFF7ACFD08
:100FF400A0EB08000228EBD953E76A69434E444941
:1010040001241AB394FAA4F3B3FA83F30B449B00B8
:1010140002271C60FFF798FD804697FAA7F397FA1A
:10102400A7F397FAA7F3726A97FAA7F3B3FA83F3CD
:1010340003F01F0304FA03F313427FF4E2AEFFF755
:1010440083FDA0EB08000228E7D92AE794FAA4F369
:10105400B3FA83F30B449B0002271A60FFF774FD75
:10106400804697FAA7F397FAA7F397FAA7F3726A59
:1010740097FAA7F3B3FA83F303F01F0304FA03F315
:1010840013423FF4BEAEFFF75FFDA0EB0800022859
:10109400E7D906E71D4CE369D90034D4E36943F08A
:1010A4008053E361E36903F080530193019B0126BC
:1010B400184F3B68DA052FD5AB68012B3DD1236A65
:1010C40043F001032362FFF73FFD02278246B9463E
:1010D4004FF0010897FAA7F397FAA7F3002B6CD007
:1010E400226A99FAA9F3B3FA83F303F01F0308FA07
:1010F40003F3134258D0002E3FF487AEE36923F084
:101104008053E36181E60026D2E700BF001002406D
:1011140020819010007000403B6843F480733B6072
:10112400FFF712FD80463B68DB05C5D4FFF70CFDD5
:10113400A0EB08006428F6D9B3E63BBB236A23F08E
:1011440001032362236A23F004032362FFF7FCFCF8
:1011540002278246B9464FF0010897FAA7F397FA97
:10116400A7F373B3226A99FAA9F3B3FA83F303F0EA
:101174001F0308FA03F31342BDD0FFF7E5FC41F265
:101184008833A0EB0A009842E7D98AE6052B236A44
:1011940003D143F00403236291E723F001032362A4
:1011A400236A23F004038DE7FFF7CEFC41F2883372
:1011B400A0EB0A0098428DD973E697FAA7F3626A06
:1011C4008FE797FAA7F3626ACDE7444C636803F0AC
:1011D4000C03082B3FF406AE022A4FF0807358D15B
:1011E40093FAA3F3B3FA83F303F1845303F584135B
:1011F4009B0000221A60FFF7A7FC4FF0007780469F
:10120400012697FAA7F3226897FAA7F3B3FA83F3B0
:1012140003F01F0306FA03F3134233D1E36A6A6A45
:1012240023F00F031343E36262682B6AE96922F433
:1012340076120B43134363604FF0807393FAA3F366
:10124400B3FA83F303F1845303F584139B004FF043
:1012540000751E60FFF778FC0126074695FAA5F392
:10126400226895FAA5F3B3FA83F303F01F0306FA91
:1012740003F313427FF4CDADFFF766FCC01B0228D5
:10128400ECD90EE6FFF760FCA0EB08000228B8D901
:1012940007E693FAA3F3B3FA83F303F1845303F554
:1012A40084139B0000221A60FFF74EFC4FF0007578
:1012B4000746012695FAA5F3226895FAA5F3B3FA31
:1012C40083F303F01F0306FA03F313423FF4A1ADC3
:1012D400FFF73AFCC01B0228ECD9E2E500100240FB
:1012E40011494B6803F00C02082A1AD14FF470120A
:1012F40092FAA2F20F20B2FA82F2C96A90FAA0F02E
:10130400B0FA80F001F00F0103F47013D340C14030
:10131400064A0748415C0748B0FBF1F1D05C4843FA
:1013240070470448704700BF00100240983000081E
:10133400A830000800127A002DE9F0410D46044659
:1013440010B90120BDE8F0814C4A136803F007038B
:101354008B422ED32268910736D4D2073CD4474A15
:10136400136803F007039D4275D32268444D12F0BD
:10137400040F7CD1130706D56B68226923F46053EC
:1013840043EAC2036B60FFF7ABFF6B68F02292FA8B
:10139400A2F2B2FA82F203F0F003D340394AD35CEA
:1013A400D840394B18600020FFF78CFB0020BDE8C3
:1013B400F081136823F007030B431360136803F0F1
:1013C40007039942BDD1C5E72D49A0684B6823F0B6
:1013D400F00303434B60C0E76268294E012A27D11A
:1013E4004FF4003393FAA3F1316893FAA3F3B3FAF9
:1013F40083F303F01F0302FA03F30B42A1D07368D3
:1014040023F003031A437260FFF79EFB41F288380E
:1014140007467368626803F00C03B3EB820F9ED037
:10142400FFF792FBC01B4045F3D90320BDE8F081D0
:10143400022A0CBF4FF00073022393FAA3F1306821
:1014440093FAA3F3B3FA83F303F01F03012101FA20
:1014540003F30342D2E7136823F007032B4313601B
:10146400136803F007039D427FF46BAF7DE76B685D
:10147400E16823F4E0630B436B607BE700200240E8
:1014840000100240BC30000808000020084B4FF454
:10149400E0625B6892FAA2F2B2FA82F203F4E063C9
:1014A400D340044AD35C044A1068D840704700BF54
:1014B40000100240CC30000808000020084B4FF414
:1014C40060525B6892FAA2F2B2FA82F203F46053B9
:1014D400D340044AD35C044A1068D840704700BF24
:1014E40000100240CC3000080800002003682DE9F9
:1014F400F347DF03044623D59B4DEB69DE0000F17F
:10150400D780EB6943F08053EB61EB6903F08053C0
:101514000193019B0126954F3B68D80540F1CA8091
:101524002B6A13F4407340F0DA802B6A626823F468
:10153400407313432B621EB1EB6923F08053EB61BC
:101544002068C30706D5884AA168136B23F00303F8
:101554000B431363870706D5834AE168136B23F4AF
:1015640040330B431363460706D57F4A2169136B47
:1015740023F440230B431363850606D57A4AE169B5
:10158400136B23F010030B431363810306D5764AD0
:10159400616D536823F480030B435360420606D500
:1015A400714A216A136B23F020030B431363430333
:1015B40006D56D4A616A136B23F040030B43136332
:1015C400070706D5684A6169136B23F440130B437C
:1015D4001363C60606D5644AA169136B23F440035A
:1015E4000B431363850506D55F4A216B536823F4C7
:1015F40000030B435360010606D55B4AA16AD36A14
:1016040023F4F8730B43D362C20506D5564AE16A44
:10161400D36A23F478530B43D362C30406D5524AE6
:10162400616B136B23F480730B431363870406D538
:101634004D4A216C136B23F400730B431363C602EE
:1016440006D5494AA16B136B23F080730B431363D4
:10165400850206D5444AE16B136B23F000730B43F8
:101664001363410206D5404A616C136B23F4806313
:101674000B431363020206D53B4AA16C136B23F49C
:1016840000630B431363C30106D5374AE16C136B44
:1016940023F400530B43136310F000701CD0324A40
:1016A400216D136B23F400430B431363002013E0F9
:1016B400002630E73B6843F480733B60FFF744FA4D
:1016C40080463B68D9053FF52BAFFFF73DFAA0EB09
:1016D40008006428F5D9032002B0BDE8F0876268E9
:1016E40002F4407293423FF420AF296A4FF48033EE
:1016F40021F4407093FAA3F2DFF874E0B2FA82F2B4
:10170400724492000127176093FAA3F3B3FA83F3A8
:1017140073449B0000221A60CA0728627FF505AF54
:10172400FFF712FA4FF002088246C14698FAA8F36E
:1017340098FAA8F3A3B12A6A99FAA9F3B3FA83F33E
:1017440003F01F0307FA03F313427FF4EEAEFFF72F
:10175400FBF941F28833A0EB0A009842E6D9BAE7D4
:1017640098FAA8F36A6AE7E70010024000700040A4
:1017740000819010704770477047704703681A697A
:10178400910710B504460FD5DA6892070CD56FF0AF
:1017940002021A619B6901229907027700F0858091
:1017A40000F0DEFE0023237723681A69520710D560
:1017B400DA6850070DD56FF004021A619B690222A2
:1017C40013F4407F2277204675D000F0C9FE002331
:1017D400237723681A6911070FD5DA6812070CD525
:1017E4006FF008021A61DB6904229B072277204606
:1017F40067D000F0B5FE0023237723681A69D0066A
:1018040010D5DA68D1060DD56FF010021A61DB69C4
:10181400082213F4407F2277204658D000F0A0FE1F
:101824000023237723681A69D20708D5DA68D0071A
:1018340005D56FF001021A612046FFF79BFF23686C
:101844001A69110608D5DA68120605D56FF0800208
:101854001A61204600F08FFC23681A69D00508D568
:10186400DA68110605D56FF480721A61204600F01B
:1018740083FC23681A69520608D5DA68500605D530
:101884006FF040021A612046FFF777FF23681A6958
:10189400910622D5DA6892061FD56FF02002204601
:1018A4001A61BDE8104000F065BCFFF764FF2046F4
:1018B400FFF762FF76E7FFF75EFF2046FFF75CFF66
:1018C40085E7FFF758FF2046FFF756FF93E7FFF73A
:1018D40052FF2046FFF750FFA2E710BD324A0368CB
:1018E400904212D0B0F1804F0FD0A2F594329042C2
:1018F4000BD002F58062904207D002F596329042F6
:1019040003D002F5E052904215D14A6823F07003E7
:101914001343254A90421DD0B0F1804F1AD0A2F54E
:101924009432904216D002F58062904212D002F5B1
:10193400963290420ED01D4A90420BD002F580623E
:10194400904207D002F58062904203D002F5006213
:10195400904203D1CA6823F4407313434A6923F0C5
:101964008003134303608B68C3620B6883620E4B6E
:10197400984213D003F5006398420FD003F54063F7
:1019840098420BD003F58063984207D003F5806337
:10199400984203D003F50063984201D10B690363B5
:1019A40001234361704700BF002C01400040014007
:1019B40010B50446A0B190F83D3003F0FF021BB906
:1019C40080F83C2001F05AF9022384F83D30206865
:1019D400211DFFF783FF012384F83D30002010BD53
:1019E400012010BD10B50446A0B190F83D3003F0BD
:1019F400FF021BB980F83C2001F07EF9022384F831
:101A04003D302068211DFFF769FF012384F83D3034
:101A1400002010BD012010BD036A23F001030362FE
:101A2400036A70B5446882690D6822F4803222F03A
:101A340073022A438D6823F002032B431F4DA842EF
:101A440013D005F50065A8420FD005F54065A842FE
:101A54000BD005F58065A84207D005F58065A8423E
:101A640003D005F50065A84222D1CD6823F0080310
:101A74002B43124DA84223F0040313D005F500654F
:101A8400A8420FD005F54065A8420BD005F5806546
:101A9400A84207D005F58065A84203D005F5006586
:101AA400A84205D124F440758E694C6934432C4313
:101AB400446082614A684263036270BD002C014045
:101AC400036A23F010030362036A70B544688269F1
:101AD4000D6822F0807222F4E64242EA05228D6803
:101AE40023F0200343EA05131A4DA84207D005F555
:101AF4000065A84203D005F5E055A8420DD1CD6894
:101B040023F0800343EA0513124DA84223F0400357
:101B140012D005F50065A8420ED00F4DA8420BD097
:101B240005F58065A84207D005F58065A84203D075
:101B340005F50065A84206D124F440658E694C6918
:101B4400344345EA8404446082614A6882630362E0
:101B540070BD00BF002C014000400140036A23F423
:101B640080730362036A70B54468C2690D6822F425
:101B7400803222F073022A438D6823F4007343EA0F
:101B840005231A4DA84207D005F50065A84203D0E5
:101B940005F5E055A8420DD1CD6823F4006343EA6E
:101BA4000523124DA84223F4806312D005F5006585
:101BB400A8420ED00E4DA8420BD005F58065A84270
:101BC40007D005F58065A84203D005F50065A84255
:101BD40006D124F440558E694C69344345EA041413
:101BE4004460C2614A68C263036270BD002C014054
:101BF40000400140036A23F480530362036A30B552
:101C04004468C2690D6822F0807222F4E64242EA16
:101C140005228D6823F4005343EA0533104DA8428E
:101C240013D005F50065A8420FD005F54065A8421C
:101C34000BD005F58065A84207D005F58065A8425C
:101C440003D005F50065A84204D14D6924F480440D
:101C540044EA85144460C2614A680264036230BD88
:101C6400002C014070B5046A184E24F0010404628B
:101C7400B0428469056A16D0B0F1804F13D0A6F53E
:101C84009436B0420FD006F58066B0420BD006F50C
:101C94009636B04207D006F54066B04203D006F54A
:101CA4008056B0420FD124F0030422431B0122F0DA
:101CB400F002DBB225F00A0501F00A011A432943B8
:101CC4008261016270BD44F00102EFE7002C014023
:101CD400F8B590F83C30012B04460D464FF0020055
:101CE40019D0012384F83C3084F83D00A2B9CB68B4
:101CF400206806C9FFF7B6FF2368A9689A6922F02D
:101D04000C029A619A690A439A610123002084F8BB
:101D14003D3084F83C00F8BD042A8E682368E868E6
:101D240082C91FD11A6A22F010021A629A691D6AC6
:101D340022F4407242EA0722000380B222F4704285
:101D44000901024301F0A00125F0A00001439A61BA
:101D540019629A6922F440629A619A6942EA0626F3
:101D64009E61D2E7082A1A6A1CD122F480721A6290
:101D7400DA691D6A22F003023A430001C0B222F07C
:101D8400F0020902024301F4206125F420600143BA
:101D9400DA611962DA6922F00C02DA61DA6916434F
:101DA400DE61B2E722F480521A62DA691D6A22F413
:101DB400407242EA0722000322F4704280B209030F
:101DC400104301F4204125F420421143D8611962E3
:101DD400DA6922F44062DA61DA6942EA0626DFE768
:101DE400036A10B501248C4023EA04030362036AE6
:101DF4008A401A43026210BD10B5044601220068ED
:101E0400FFF7EEFF2368104A934213D002F50062F5
:101E140093420FD002F5406293420BD002F58062E8
:101E2400934207D002F58062934203D002F5006228
:101E3400934203D15A6C42F400425A641A6842F045
:101E440001021A60002010BD002C014010B50446A8
:101E54000C290DD8DFE801F0070C0C0C170C0C0C46
:101E64001C0C0C0C21000268D36843F00203D360FD
:101E740020680122FFF7B4FF2268136843F00103CE
:101E84001360002010BD0268D36843F00403EEE73A
:101E94000268D36843F00803E9E70268D36843F0B3
:101EA4001003E4E7036A23F480330362036A30B562
:101EB4004468426D0D6822F4803222F070022A4395
:101EC4008D6823F4003343EA0543114DA84213D02F
:101ED40005F50065A8420FD005F54065A8420BD072
:101EE40005F58065A84207D005F58065A84203D0B2
:101EF40005F50065A84204D14D6924F4803444EA10
:101F04000524446042654A688265036230BD00BFAF
:101F1400002C0140036A23F480130362036A30B582
:101F24004468426D0D6822F0807222F4E04242EA75
:101F340005228D6823F4001343EA0553104DA8428B
:101F440013D005F50065A8420FD005F54065A842F9
:101F54000BD005F58065A84207D005F58065A84239
:101F640003D005F50065A84204D14D6924F480240A
:101F740044EA8524446042654A68C265036230BD10
:101F8400002C014038B590F83C30012B04460D4636
:101F94004FF0020010D00123082A84F83C3084F862
:101FA4003D0043D009D8FAB1042A2ED001230020E1
:101FB40084F83D3084F83C0038BD102A47D0142AF8
:101FC40056D00C2AF2D12068FFF714FE2368296941
:101FD400DA6942F40062DA61DA6922F48062DA6171
:101FE400DA6942EA012230E02068FFF715FD236830
:101FF40029699A6942F008029A619A6922F00402F6
:102004009A619A690A439A61D0E72068FFF758FDFC
:10201400236829699A6942F400629A619A6922F4F0
:1020240080629A619A6942EA0122ECE72068FFF72C
:1020340095FD23682969DA6942F00802DA61DA69F0
:1020440022F00402DA61DA690A43DA61AEE7206851
:10205400FFF728FF236809695A6D42F008025A65A0
:102064005A6D22F004025A655A6D0A435A659DE777
:102074002068FFF74FFF236809695A6D42F4006234
:102084005A655A6D22F480625A655A6D42EA0122F9
:10209400ECE7000090F83C30012B30B520D002680A
:1020A400104D53689468AA4207D005F50065AA420A
:1020B40003D005F5E055AA4203D14D6823F470031B
:1020C4002B430D68896823F070032B4324F08004AC
:1020D400536021430023916080F83C30184630BDA2
:1020E400022030BD002C014090F83C30012B10B58B
:1020F4003CD0CB688A681E4C23F4407313434A686F
:1021040023F4806313430A6823F4006313430A69C6
:1021140023F4805313434A6923F4005313438A6A14
:1021240023F4404313438A6923F4702343EA0243AC
:102134000268A24207D004F50064A24203D004F569
:10214400E054A2420CD14C6A23F4700343EA0453D2
:10215400CC69096A23F08073234323F000730B4393
:102164005364002380F83C30184610BD022010BD93
:10217400002C0140704770477047000038B5044692
:1021840005682169A268C36928680A4361690A432A
:1021940077491A4301400A432A606A68E168206A61
:1021A40022F440520A436A60A968A26921F43061AA
:1021B40002430A43AA606F4A954212D102F558427B
:1021C4006D49126B02F00302B3F5004F8A5C66D0CE
:1021D400082A19D8DFE802F0C2929E18A918181824
:1021E400AC00664A954224D102F5E632126B02F441
:1021F4004032B2F5803F00F0A08007D8002A00F0FA
:10220400AA80B3F5004F76D0012038BDB2F5003F67
:1022140000F09980B2F5403FF3D1B3F5004F79D186
:102224006068430803F5740303F51053B3FBF0F33C
:1022340054E0534A95420ED102F5E432126B02F493
:102244004022B2F5802F78D0D8D9B2F5002F7AD0B9
:10225400B2F5402FE0E74B4A95420ED102F5E23247
:10226400126B02F44012B2F5801F66D0C6D9B2F5E3
:10227400001F68D0B2F5401FCEE7434A9542C0D153
:1022840002F5E032126B02F44002B2F5800F54D032
:10229400B4D9B2F5000F56D0B2F5400FBCE7082A06
:1022A40029D801A353F822F0D1220008F52200080E
:1022B40025220008FB22000845230008FB22000811
:1022C400FB220008FB22000851230008FFF7DEF878
:1022D40061684A0802EB4003B3FBF1F39BB20020B0
:1022E40023F00F022168C3F342031343CB6038BDCC
:1022F400FFF7E4F8ECE701200023F1E7FFF7DEF84D
:10230400636800EB5300B0FBF3F01A4B80B2D86063
:10231400002038BD6268530803F5F40303F59053B5
:10232400B3FBF2F39BB2EB60F2E7FEF7D9FF17E0E1
:102334006268530803F50043F2E7B3F5004FF4D1A4
:10234400FEF7CEFFC4E7B3F5004FF1D16068430850
:1023540003F580336AE7B3F5004FB7D0FFF796F87B
:10236400636800EB5300B0FBF3F080B2E860CFE7A2
:10237400F369FFEF00380140B83000080044004022
:1023840000480040004C004000500040436ADA0717
:1023940010B506D50168846A4A6822F400322243E3
:1023A4004A609C0706D50168C46A4A6822F48032F0
:1023B40022434A60590706D50168046B4A6822F42F
:1023C400802222434A601A0706D50168446B4A6892
:1023D40022F4004222434A60DC0606D50168846B7D
:1023E4008A6822F4805222438A60990606D50168DD
:1023F400C46B8A6822F4005222438A605A060FD5BD
:102404000168046C4A6822F480122243B4F5801FE8
:102414004A6005D14A68446C22F4C00222434A60EF
:102424001B0606D50268816C536823F400230B4312
:10243400536010BD2DE9F041069D04460F46164633
:1024440098462168CA6937EA02030CBF01220022B8
:10245400B24202D00020BDE8F0816B1CF2D09DB9DD
:1024640023681A6822F4D0721A609A6822F0010272
:102474009A60202384F8693084F86A30002384F851
:1024840068300320BDE8F081FEF75EFBA0EB080096
:102494008542D6D2E4E773B504460026C666FEF745
:1024A40053FB23681B681A07054617D423681B6867
:1024B4005B070AD56FF07E43009300222B464FF44E
:1024C40080012046FFF7B6FFA0B92023002084F83E
:1024D400693084F8680084F86A300CE06FF07E4359
:1024E4000093324603464FF400112046FFF7A2FF43
:1024F4000028DBD0032002B070BD10B5044660B3E1
:1025040090F8693003F0FF021BB980F8682000F0EE
:10251400D7FC2268242384F86930136823F001036C
:1025240013602046FFF72AFE012816D0636A13B110
:102534002046FFF72BFF23685A6822F490425A6022
:102544009A6822F02A029A601A6842F00102204630
:102554001A60BDE81040FFF79EBF012010BD0000C7
:102564002DE9F8430368B3F1804F04460AD10121F1
:102574004FF09040FEF726FC8F4B01281B6844D196
:1025840000225A6222688D4B8D4D9A420AD1102145
:102594004FF09040FEF716FC8A4B01281B6857D178
:1025A40000225A622268884B884E9A420AD14FF41C
:1025B40000418748FEF706FC864B01281B6869D159
:1025C40000225A620022844BD5E90001FEF72AFA60
:1025D4000746002800F08A800022804B804CD6E910
:1025E4000001FEF71FFA002876D07E497E4B0022B8
:1025F400D1E90001FEF734FA00286DD00022512100
:102604002264E163794BD9636DE0586A784B1860B2
:10261400FDF730FF0022774BFEF7BCF8714B0F46F5
:102624000646C3E90067FEF725FA734B1860FDF709
:1026340021FF02460B4630463946FDF7CDFD6F4B70
:102644000022FDF77DFFFEF715FA6D4B186099E740
:10265400586A6C4B1860FDF70DFF0022654BFEF7BE
:1026640099F80F460646C5E90067FEF703FA664B7C
:102674001860FDF7FFFE02460B4630463946FDF76B
:10268400ABFD5E4B0022FDF75BFFFEF7F3F95F4BFA
:10269400186087E7586A5E4B1860FDF7EBFE00226E
:1026A400544BFEF777F889468046C6E90089FEF761
:1026B400E1F9584B1860FDF7DDFE02460B46404633
:1026C4004946FDF789FD4D4B0022FDF739FFFEF722
:1026D400D1F9514B186075E75A232364434B002208
:1026E400E263DA6357221A64BDE8F8833D4BD3E909
:1026F40000450022494B20462946FEF793F970B164
:1027040000223E4BD6E90001FEF7AAF938B1344B5A
:1027140064221A64DF63A3F59633DF63E3E7D6E943
:10272400006700223D4B30463946FEF77BF960B125
:102734000022324B20462946FEF792F928B1284B55
:10274400002264211A64D9635CE732463B46204682
:102754002946FDF743FD0022284BFEF763F908B331
:1027640000222F4B30463946FEF75CF948B11C4B2A
:1027740047221A640022DA63A3F596334821D96309
:102784001A640022274B20462946FEF74BF948B12C
:10279400134B48221A640022DA63A3F596334721C7
:1027A400D9631A640E4B49221A640022DA634B215E
:1027B400A3F5963327E700BFBC01002000040040C6
:1027C400680100201401002000400140080100209D
:1027D40000040048C00000200000494000004E40B2
:1027E400003401405801002000003E400008004031
:1027F4000001002000004D4030000020000059403E
:10280400100100206C02002060010020B8010020AB
:1028140078000020B00100207C000020008051409E
:10282400008041400040504010B5A6B0282200214D
:1028340006A800F01BFC1422002101A800F016FCDD
:102844005822002110A800F011FC02230693012352
:10285400099306A8102300240A93FEF7BFFA0F2356
:10286400019321464FF4806301A8049302940394D6
:102874000594FEF761FD064B109310A813941D9464
:10288400219420941E941F94FEF730FE26B010BDB0
:10289400023070002DE980489BB0FEF737F9FFF74E
:1028A400C3FF142200210FA800F0E0FBB54BB6488B
:1028B4005A69B64DB64EDFF8FC82B64F42F4002298
:1028C4005A615A6902F400220292029A5A6942F445
:1028D40000325A615A6902F400320392039A5A6927
:1028E40042F480225A615B6903F48023049300223A
:1028F4001021049BFEF76CFA01222021A248002437
:10290400FEF766FA4FF0010A30230FA99E480F9391
:10291400CDF840A011941294FEF784F91C222146AC
:1029240008A805940694079400F0A0FB2C222146E5
:102934000FA800F09BFB984BAC604FF0070985E8AB
:10294400080228464EF66023EB602C616C61AC6192
:10295400FFF72EF805A928464FF00A0B05940694B4
:102964000794FFF797FB6023224608A9284608939B
:10297400CDF824B00A940B940C940D940E94FFF7A4
:1029840001FB042208A92846FFF7FCFA4FF4005380
:102994000FA9149328464FF0007317930F941094C3
:1029A4001194129413941594169418941994FFF78F
:1029B4009BFB284600F02CFA102221460FA808940D
:1029C40009940A9400F052FB744BB46086E8080240
:1029D40030464FF6FF73F360019334617461B46160
:1029E400FFF700F808A9304608940A94FFF752FB51
:1029F4000FA904223046CDF83CB0CDF840A0119484
:102A04001294FFF765F96648664A84604FF4E1332F
:102A140080E80C000C234361C46004618461C461D8
:102A240004624462FFF769FD214610220FA808944E
:102A340009940A9400F01AFB019BC8F80C304FF07B
:102A44008042404688E80402C8F80840C8F81040AC
:102A5400C8F81840FEF7C6FF08A9404608940A942F
:102A6400FFF718FB22460FA94046CDF83CB0CDF83D
:102A740040A011941294FFF72BF9214610220FA8BD
:102A8400089409940A9400F0F1FA474A019BFB6008
:102A9400384687E80402BC603C61BC61FEF7A2FFD3
:102AA40008A9384608940A94FFF7F4FA04220FA9F7
:102AB4003846CDF83CB0CDF840A011941294FFF7FD
:102AC40007F91C2221460FA8DFF8ECB008940994FA
:102AD4000A9400F0CBFA354BCBF808408BE8080297
:102AE40058466423CBF80C300193CBF81040CBF854
:102AF4001840FEF75DFF08A9584608940A94FFF7AA
:102B0400C9FA602308220FA958460F931094119410
:102B14001394FFF737FA0C220FA95846FFF732FA3D
:102B2400584600F075F91C22214608A8DFF88CA04D
:102B340005940694079400F099FA21462C220FA8D4
:102B440000F094FA1A4A019BCAF80C3050468AE8FD
:102B54000402CAF80840CAF81040CAF81440CAF877
:102B64001840FEF725FF05A95046059406940794DE
:102B7400FFF790FA6023082208A9504608930994A5
:102B84000A941DE000100240000800487001002073
:102B9400C000002014010020002C0140004001402E
:102BA400FC010020004400400004004000080040F4
:102BB40000340140BC0100208000002038000020C7
:102BC4000B940C940D940E94FFF7DCF90C2208A9D5
:102BD4005046FFF7D7F94FF400530FA9149350460A
:102BE4004FF0007317930F9410941194129413944C
:102BF4001594169418941994FFF776FA504600F039
:102C040007F921462846FFF7F7F821464046FFF723
:102C14001DF904213846FFF719F904213046FFF75E
:102C240015F90C215046FFF7E7F808215046FFF745
:102C3400E3F808215846FFF7DFF80C215846FFF760
:102C4400DBF8FEE70C4B07B59A6942F001029A6182
:102C54009A6902F001020092009ADA6942F0805205
:102C6400DA61DB6903F0805301930720019BFDF7D0
:102C740071FF03B05DF804FB001002401FB5036848
:102C8400194A934214D1194B9A6942F400629A6129
:102C94009B69002203F40063019318201146019BF1
:102CA400FDF76AFF1820FDF79BFF05B05DF804FBF4
:102CB4000F4A93420AD10D4BDA6942F00402DA61F9
:102CC400DB6903F004030293029BEEE7094A934293
:102CD400EBD1064B9A6942F400529A619B6903F462
:102CE40000530393039BE0E7002C014000100240D3
:102CF400000800400034014010B504468CB0142292
:102D0400002107A800F0B2F92368B3F1804F27D15E
:102D140003F5043307A9DA6942F00102DA61DA69DA
:102D240002F001020192019A5A6942F400325A6196
:102D34005B6903F4003302930222029B089201238D
:102D44004FF0904007930B93FDF76CFF00221C207B
:102D54001146FDF711FF1C20FDF742FF0CB010BD1A
:102D6400274A934223D1274BDA6942F00202DA61FF
:102D7400DA6902F002020392039A5A6942F40032B9
:102D84005A615B6903F400330493049B1023079393
:102D940007A902234FF0904008930B93FDF742FFDD
:102DA40000221D201146FDF7E7FE1D20D4E7164A38
:102DB4009342D3D1134B15489A6942F480329A61F5
:102DC4009A6902F480320592059A5A6942F4802283
:102DD4005A615B6903F480230693069B4FF4004316
:102DE40007930223089307A901230B93FDF71AFF06
:102DF400002218201146FDF7BFFE1820ACE700BFE3
:102E0400000400400010024000400140000400485B
:102E140010B5044688B01422002103A800F026F956
:102E24002368214A934211D1204B5A6942F400226B
:102E34005A615B6903F400230093009B032303930B
:102E440002230493079303A9194814E0194A9342EF
:102E540015D1164B18485A6942F480225A615B69AD
:102E640003F480230193019B4FF4407303930223E3
:102E74000493079303A9FDF7D5FE08B010BD0F4ACC
:102E84009342FAD1094B5A6942F400225A615B69B0
:102E940003F400230293029B4FF440730393022331
:102EA40004930423CEE700BF002C0140001002402D
:102EB40000080048000800400004004800340140B5
:102EC40010B5044688B01422002103A800F0CEF8FF
:102ED4002268124B9A421ED103F5E63303A9DA693C
:102EE40042F40032DA61DA6902F400320192019AA2
:102EF4005A6942F400325A615B6903F40033029365
:102F0400029B0C230393022304934FF09040072366
:102F14000793FDF787FE08B010BD00BF00440040D2
:102F24007047FEE7FEE7FEE7FEE77047704770472D
:102F3400FDF7FEBD08B50448FEF720FC0348BDE8D4
:102F44000840FEF71BBC00BF70010020C000002039
:102F54000148FEF713BC00BFBC0100200148FEF786
:102F64000DBC00BF140100201549D1F8883043F48A
:102F74007003C1F88830134B1A6842F001021A60DA
:102F84005868114A02405A601A6822F0847222F486
:102F940080321A601A6822F480221A605A6822F475
:102FA400FE025A60DA6A22F00F02DA62186B074AEC
:102FB40002401A6300229A604FF000638B607047EE
:102FC40000ED00E0001002400CC07FF8CCFC00FFD4
:102FD400DFF834D0002103E00C4B5B58435004313C
:102FE4000B480C4B42189A42F6D30B4A02E00023DA
:102FF40042F8043B094B9A42F9D3FFF7B5FF00F0BE
:1030040011F8FFF747FCFEE700000120DC30000860
:10301400000000200C00002010000020700200209E
:10302400FEE7000070B50D4E0D4CA41BA410002546
:10303400A54209D10B4E0C4C00F020F8A41BA4109F
:103044000025A54205D170BD56F8253098470135B5
:10305400EEE756F8253098470135F2E7D4300008FA
:10306400D4300008D4300008D830000802440346A5
:10307400934200D1704703F8011BF9E7F8B500BF8C
:10308400F8BC08BC9E467047F8B500BFF8BC08BC45
:043094009E4670479D
:1030980002030405060708090A0B0C0D0E0F101091
:1030A8000102030405060708090A0B0C0D0E0F1090
:1030B80001040802000000000000000001020304EF
:0C30C800060708090000000001020304D4
:0430D400B901000836
:0430D8009501000856
:0C30DC00010000001000000000127A004B
:0400000508002FD5EB
:00000001FF
